:100000000C9462000C948A000C948A000C948A0070
:100010000C948A000C948A000C9453110C948A005E
:100020000C948A000C948A000C948A000C948A0028
:100030000C948A000C948A000C948A000C948A0018
:100040000C94F7050C948A000C94C5050C949F053C
:100050000C948A000C948A000C948A000C948A00F8
:100060000C948A000C948A000000000023002600F3
:10007000290000000008000201000003040700003E
:1000800000000000000000000000250028002B00F8
:1000900000000000240027002A00040404040404D3
:1000A0000404020202020202030303030303010227
:1000B00004081020408001020408102001020408F6
:1000C0001020561111241FBECFEFD8E0DEBFCDBFE8
:1000D00011E0A0E0B1E0EEE5F9E202C005900D927A
:1000E000A835B107D9F722E0A8E5B1E001C01D921B
:1000F000AF3BB207E1F710E0C2E6D0E004C02197C1
:10010000FE010E949714C136D107C9F70E94C3119E
:100110000C94AD140C94000090E0FC01E255FF4FEC
:10012000249186569F4FFC018491882399F090E09A
:10013000880F991FFC01E057FF4FA591B491FC0176
:10014000EA57FF4F859194918FB7F894EC91E22B89
:10015000EC938FBF0895AF92BF92CF92DF92EF9250
:10016000FF920F931F93CF93DF936C017B018B0161
:10017000040F151FEB015E01AE18BF08C017D107B1
:1001800059F06991D601ED91FC910190F081E02D3B
:10019000C6010995892B79F7C501DF91CF911F9190
:1001A0000F91FF90EF90DF90CF90BF90AF900895A8
:1001B000FC01538D448D252F30E0842F90E0821B6D
:1001C000930B541710F0CF96089501970895FC01F2
:1001D000918D828D981761F0A28DAE0FBF2FB11D4A
:1001E0005D968C91928D9F5F9F73928F90E00895A2
:1001F0008FEF9FEF0895FC01918D828D981731F05C
:10020000828DE80FF11D858D90E008958FEF9FEFAF
:100210000895FC01918D228D892F90E0805C9F4F85
:10022000821B91098F73992708958AEE91E00E94AD
:10023000090121E0892B09F420E0822F08950E9412
:10024000150181110C940000089580E090E0892B45
:1002500011F00C941F010895FC01A48DA80FB92F73
:10026000B11DA35ABF4F2C91848D90E001968F73DE
:100270009927848FA689B7892C93A089B1898C91FD
:10028000837080648C93938D848D981306C002884C
:10029000F389E02D80818F7D80830895EF92FF9216
:1002A0000F931F93CF93DF93EC0181E0888F9B8D99
:1002B0008C8D98131AC0E889F989808185FF15C053
:1002C0009FB7F894EE89FF896083E889F989808176
:1002D0008370806480839FBF81E090E0DF91CF9145
:1002E0001F910F91FF90EF900895F62E0B8D10E067
:1002F0000F5F1F4F0F731127E02E8C8D8E110CC0D6
:100300000FB607FCFACFE889F989808185FFF5CF20
:10031000CE010E942C01F1CFEB8DEC0FFD2FF11DD2
:10032000E35AFF4FF0829FB7F8940B8FEA89FB895D
:1003300080818062CFCFCF93DF93EC01888D8823BB
:10034000B9F0AA89BB89E889F9898C9185FD03C038
:10035000808186FD0DC00FB607FCF7CF8C9185FF1D
:10036000F2CF808185FFEDCFCE010E942C01E9CF35
:10037000DF91CF910895833081F028F4813099F096
:100380008230A9F008958730A9F08830C9F0843010
:10039000B1F4809180008F7D03C0809180008F77C1
:1003A00080938000089584B58F7784BD089584B5C7
:1003B0008F7DFBCF8091B0008F778093B000089540
:1003C0008091B0008F7DF9CFCF93DF93282F30E05D
:1003D000F901EE58FF4F8491F901E255FF4FD49196
:1003E000F901E656FF4FC491CC23A1F081110E9480
:1003F000BB01EC2FF0E0EE0FFF1FE859FF4FA59176
:10040000B491EC91ED2381E090E009F480E0DF917C
:10041000CF91089580E090E0FACF1F93CF93DF93C0
:10042000282F30E0F901EE58FF4F8491F901E25591
:10043000FF4FD491F901E656FF4FC491CC23A9F0A8
:10044000162F81110E94BB01EC2FF0E0EE0FFF1F71
:10045000EA57FF4FA591B4918FB7F894EC91111121
:1004600008C0D095DE23DC938FBFDF91CF911F9121
:100470000895DE2BF8CF3FB7F894809187019091D3
:100480008801A0918901B0918A0126B5A89B05C079
:100490002F3F19F00196A11DB11D3FBFBA2FA92F03
:1004A000982F8827BC01CD01620F711D811D911D00
:1004B00042E0660F771F881F991F4A95D1F708956C
:1004C0008F929F92AF92BF92CF92DF92EF92FF9264
:1004D0004B015C010E943B026B017C010E943B02CC
:1004E0006C197D098E099F09683E7340810591054D
:1004F000A8F321E0821A9108A108B10888EEC80E7D
:1005000083E0D81EE11CF11C81149104A104B10404
:1005100029F7FF90EF90DF90CF90BF90AF909F9022
:100520008F900895E0919301F09194018081811161
:1005300007C08FEF9FEF90937B0180937A0108951E
:10054000E0919301F09194010580F681E02D068001
:10055000F781E02D82819381EECF089590E080E0D5
:100560000895FC0101900020E9F73197AF01481B85
:10057000590BBC0187E892E00C94AB00CF93DF935A
:10058000EC0160E08E810E940D0261E08E810E948C
:100590000D0260E08E810E940D028BE891E00197D0
:1005A000F1F7DF91CF910895CF92DF92EF92FF9212
:1005B0000F931F93CF93DF936C017C0187E0E80ECC
:1005C000F11CD0E0C0E0062F10E0B8010C2E02C0F4
:1005D000759567950A94E2F76170F70181917F0143
:1005E0000E940D022196C430D10579F7C601DF9132
:1005F000CF911F910F91FF90EF90DF90CF900C94CF
:10060000BE02CF92DF92EF92FF920F931F93CF9390
:10061000DF93EC01F62E642F8C810E940D028D81F8
:100620008F3F19F060E00E940D020F2D10E08F85C2
:1006300084FF25C06E0187E0C80ED11CF12CE12C8F
:10064000B8010E2C02C0759567950A94E2F76170A7
:10065000F60181916F010E940D02FFEFEF1AFF0A70
:1006600088E0E816F10461F7CE01DF91CF911F9188
:100670000F91FF90EF90DF90CF900C94BE02B801E5
:1006800084E0759567958A95E1F7CE010E94D402C2
:100690006F2DCE01DF91CF911F910F91FF90EF90C1
:1006A000DF90CF900C94D40240E0682F87E892E06E
:1006B0000C940103CF93DF93823029F4909196023A
:1006C00098609093960280939A0210929B0280E425
:1006D00080939C0280E180939D0280E580939E023E
:1006E00080918B020E948C0080918C028F3F11F0D0
:1006F0000E948C0080918D020E948C00C7E8D2E09D
:100700009E01275832408091960284FD0AC084E001
:1007100090E02196281739073CF48E810E948C00C6
:10072000EFCF88E090E0F5CF8BE39DE00197F1F704
:1007300060E080918B020E940D0260E080918D024A
:100740000E940D0280918C028F3F19F060E00E94A0
:100750000D028091960284FD39C063E087E892E043
:100760000E94D402CBE4D6E4CE010197F1F763E016
:1007700087E892E00E94D4022197F1F763E087E8CE
:1007800092E00E94D40283E592E00197F1F762E0E3
:1007900087E892E00E94D4028091960280620E94D3
:1007A000540384E0809397028CE00E94540381E01C
:1007B0000E9454038BE39FE10197F1F782E080935D
:1007C000980286E0DF91CF910C94540380620E94DE
:1007D00054038BE496E40197F1F7809196028062CE
:1007E0000E94540383E592E00197F1F7809196020D
:1007F00080620E945403D0CF41E00E94010381E057
:1008000090E0089581E10E94E401019751F460E0D5
:1008100083E00E940D0268EE73E080E090E00E94A9
:1008200060028FE00E94E401019751F460E082E0F1
:100830000E940D0268EE73E080E090E00E9460028A
:10084000E1E080919A028111E0E0E195F0E0E95762
:10085000FD4F848980680E94540347E050E064E2C1
:1008600071E087E892E00E94AB0082E10E94E4011F
:10087000019741F662E080915E0190915F010E94D4
:100880006D0B61E080915C0190915D010E946D0BA8
:10089000B9CFCF93DF93CDB7DEB7A1970FB6F8945A
:1008A000DEBF0FBECDBF80E4782E9AE0892E912C5A
:1008B000A12CB12C0BE31FE170927C0080917A0097
:1008C000806480937A0080917A0086FDFCCF8091CD
:1008D000780060917900762F682F072E000C880B26
:1008E000990B0E947C1320E030E04AEF5EE30E9407
:1008F000E0130E94441370935B0160935A016931C5
:1009000071050CF07BC08CE291E00E94B10261E0C5
:1009100083E00E940D0260E082E00E940D02E091FF
:100920009A02E23008F074C0E150F0E0E957FD4F60
:10093000848980680E94540388E391E00E94B10298
:10094000C0905A01D0905B010D2C000CEE08FF08FE
:10095000F7FE60C041E06DE287E892E00E9401038B
:1009600022273327A9012C193D094E095F0919A235
:10097000CE0181967C01CA01B901A50194010E94B2
:100980007514605DF70162937F0121153105410502
:10099000510589F7E114F10461F001900020E9F7B5
:1009A0003197AF014E195F09B70187E892E00E94C5
:1009B000AB008FE391E00E94B10268EC70E080E050
:1009C00090E00E94600281E00E945403C8010197F8
:1009D000F1F780E10E94E401019709F06DCF61E039
:1009E00080915E0190915F010E946D0B62E08091A9
:1009F0005C0190915D010E946D0B5ECF83E391E0FD
:100A00000E94B10260E083E00E940D0261E084CFA9
:100A1000E1E08BCFA701960119A2CE0181967C015E
:100A2000CA01B901A50194010E947514605DF70126
:100A300062937F01211531054105510589F7AACF40
:100A400000E010E08091790181110CC08091C20119
:100A5000823010F00E941D080115110599F30E94C3
:100A60001F01F0CF0FB6F8940F92E091A301F0911F
:100A7000A401C681D781CE0102960E94AF06809163
:100A8000E90181508093E90180917901815080933F
:100A900079010F900FBE8F89988D0E94990DCE011C
:100AA0000E94990DCFCF0F931F93EAEEF1E0A0893A
:100AB000B18982E08C93A485B5851C92A685B78503
:100AC0008FEC8C93108EA489B58986E08C93A289D3
:100AD000B3898C9180618C93A289B3898C91886051
:100AE0008C93A289B3898C9180688C930288F38956
:100AF000E02D80818F7D808382E00E945A0383E015
:100B00000E948C0082E00E948C000EE511E022E041
:100B100040E850E060E571E089E494E00E94810FD4
:100B20000CE511E021E040E850E064E571E082E08E
:100B300094E00E94810F1F910F910C9489101F92D5
:100B40000F920FB60F9211242F933F934F935F9301
:100B50006F937F938F939F93AF93BF93EF93FF9385
:100B60008AEE91E00E942C01FF91EF91BF91AF912D
:100B70009F918F917F916F915F914F913F912F91B5
:100B80000F900FBE0F901F9018951F920F920FB6E7
:100B90000F9211242F938F939F93EF93FF93E091E4
:100BA000FA01F091FB018081E0910002F0910102D5
:100BB00082FD1BC09081809103028F5F8F73209113
:100BC0000402821741F0E0910302F0E0E651FE4F8B
:100BD000958F80930302FF91EF919F918F912F91B9
:100BE0000F900FBE0F901F9018958081F4CF1F9229
:100BF0000F920FB60F9211242F933F938F939F93D1
:100C0000AF93BF938091830190918401A09185015E
:100C1000B09186013091820123E0230F2D3758F5E2
:100C20000196A11DB11D20938201809383019093B1
:100C30008401A0938501B0938601809187019091F2
:100C40008801A0918901B0918A010196A11DB11D71
:100C50008093870190938801A0938901B0938A01C2
:100C6000BF91AF919F918F913F912F910F900FBEA8
:100C70000F901F90189526E8230F0296A11DB11D15
:100C8000D2CFFC01DB010FB6F8940F9240918E0198
:100C900050918F012D913C9111972F3F3207E1F038
:100CA00081819281609190017081761719F04817C7
:100CB0005907C0F4481B590B4217530788F4241BEB
:100CC000350B2D933C9380919001808380918E0110
:100CD00090918F019283818380E00F900FBE0895E1
:100CE0001D921C9281E0F9CF0FB6F8940F9280917B
:100CF0008E0190918F010F900FBE089580918B010E
:100D00008F5F80938B0108950FB6F8940F92FC01CA
:100D1000928D0F900FBE81E0911180E00895CF93E6
:100D2000DF939C01FB01DC011196CD91DC91D38313
:100D3000C2838C819D81958384838C819D81DC011C
:100D400013967C936E9312977D836C8331872087F3
:100D5000F90180818F5F8083DF91CF910895CF93D8
:100D6000DF93FC01A085B185828193812481358147
:100D7000EC013D832C83C481D5819B838A831196AA
:100D80008D919C9112978E179F0721F41296DC93F8
:100D9000CE931197118610868C9181508C938C91F3
:100DA000DF91CF9108950F931F93CF93DF93DC01D1
:100DB0001596ED91FC91C681D7818E01045F1F4F7E
:100DC000C8010E94AF0680918B01811125C00A5095
:100DD0001109C8010E94AF068E899091E60198170B
:100DE00010F48093E601B9E08B9FC0011124B80193
:100DF0008E539E4F0E948F06E0915801F091590149
:100E00009E898689891760F481E080937801DF915B
:100E1000CF911F910F910895B80187EA91E0EACF31
:100E200080E0F5CFEF92FF920F931F93CF93DF9364
:100E3000EC010FB6F8940F921E8D7C0181E1E80E53
:100E4000F11C01E01116D4F08FEF8E8F0F900FBEC2
:100E50000FB6F8940F921D8D7E0188E0E80EF11C0C
:100E600001E01116B4F08FEF8D8F0F900FBEDF9160
:100E7000CF911F910F91FF90EF900895898988235A
:100E800019F3C7010E94D306811100937801115014
:100E9000D9CF8885882339F3C7010E94D3068111F1
:100EA000009378011150DDCF0F931F93CF93DF9301
:100EB0008C01FB0180819181D80113968F3F9807A7
:100EC000F1F4E801AF81B88512968D919C9113974A
:100ED00093838283EC01FD83EC83B583A483139613
:100EE000FC93EE93129711870087F80180818F5F42
:100EF0008083DF91CF911F910F910895D9011296B0
:100F00002D913C911397E9014881598184179507E8
:100F1000A8F7DACFFC017383628391878087461735
:100F2000570790F0421B530B848595854817590746
:100F3000C8F4BF016E5F7F4F80917E0190917F0169
:100F40000E94540780E008954217530718F462176F
:100F5000730740F4BF016E5F7F4F809180019091D5
:100F60008101EECF81E00895FF920F931F93CF93FD
:100F7000DF93EC01F62E00918E0110918F0180918C
:100F800058019091590102960E94AF06CF3FDC07AD
:100F900089F4FF2079F060915801709159016E5FDA
:100FA0007F4F85E991E0DF91CF911F910F91FF90E5
:100FB0000C948F06C00FD11FE0915801F091590198
:100FC000D383C2836091580170915901C017D10732
:100FD00068F480919101909192016E5F7F4FDF9153
:100FE000CF911F910F91FF900C9454078091930122
:100FF000909194016E5F7F4F0E94540780917A0117
:1010000090917B01C817D90720F4D0937B01C0933E
:101010007A01DF91CF911F910F91FF900895FC010C
:101020000396928381832FEF3FEF3483238396834C
:10103000858390878783108208950F920FB6F89466
:101040000F921F9211242F923F924F925F926F92B4
:101050007F928F929F92AF92BF92CF92DF92EF9248
:10106000FF920F931F932F933F934F935F936F9331
:101070007F938F939F93AF93BF93CF93DF93EF9320
:10108000FF93A0915801B09159010DB60D920EB683
:101090000D9280918B01882321F081E0809378016B
:1010A0005FC010927801A0915801B0915901E09170
:1010B0005801F09159012D913C918789908D8217AB
:1010C0009307A8F08091580190915901809158019F
:1010D00090915901259A2D9A2FEF87EA91E6215098
:1010E00080409040E1F700C000001D9AF5CF2091AC
:1010F000E60189E001C02150422F50E0849FF001B9
:10110000859FF00D1124EE53FE4F9081992399F3A2
:10111000A181B28112960D90BC91A02DB283A183C2
:10112000289FC00111248B539E4FA817B90729F49B
:1011300012968D919C919283818389E0849FF00126
:10114000859FF00D1124EE53FE4F0180F281E02DBA
:101150008681978190935901809358012093E601ED
:10116000A0915801B0915901CD91CDBFDD91DEBF65
:10117000FF91EF91DF91CF91BF91AF919F918F91AF
:101180007F916F915F914F913F912F911F910F919F
:10119000FF90EF90DF90CF90BF90AF909F908F9097
:1011A0007F906F905F904F903F902F901F900F9087
:1011B0000FBE0F9008957F928F929F92AF92BF9231
:1011C000CF92DF92EF92FF920F931F93CF93DF9313
:1011D0000FB6F8940F9280918B01815080938B0110
:1011E00080918B01882389F080E00F900FBEDF9102
:1011F000CF911F910F91FF90EF90DF90CF90BF9014
:10120000AF909F908F907F9008958091E9018823FF
:1012100059F3D0E0C0E029E0F22EEE24E39429C097
:10122000E091AC01F091AD01C681D781CE010C9661
:101230000E94AF068E010E5F1F4FC8010E94AF06CD
:101240008E899091E601981710F48093E6018F9DA6
:10125000C0011124B8018E539E4F0E948F06E09169
:101260005801F09159019E898689981710F0E092F3
:1012700078018091A7018111D3CFCD2B11F00E946D
:101280009202E0907601F0907701E114F10409F404
:10129000AFC089E0A82E77247394CC24CA94DC2CA8
:1012A00080918B01811192C0C0918E01D0918F01EC
:1012B0002196D0938F01C0938E012097B9F480912D
:1012C000930190919401209191013091920130937A
:1012D00094012093930190939201809391018091C6
:1012E00090018F5F809390010E94920280917A0119
:1012F00090917B01B12CC817D90708F05BC0E09131
:101300005801F0915901E689AE9EF0011124EE5387
:10131000FE4F8081823010F0BB24B394809178011D
:10132000811103C0BB2009F45AC07092780157C0E4
:10133000E0919301F09194010580F681E02D068102
:101340001781D80112968D919C91C817D90728F45E
:1013500090937B0180937A01D2CF4801B2E08B0E4B
:10136000911CC4010E94AF06F80184899589892BDC
:1013700021F0C8010C960E94AF06D80156968C91B8
:101380009091E601981710F48093E6018A9DC001C0
:101390001124B4018E539E4F0E948F06E091580194
:1013A000F0915901D80156969C918689981710F0B2
:1013B000BB24B394E0919301F09194018081811159
:1013C000B7CFD0927B01C0927A0199CF80917601FC
:1013D0009091770101969093770180937601B1E027
:1013E000EB1AF10809F05CCF1092770110927601A8
:1013F00080917801882309F4F7CE0E941D0881E0CE
:10140000F4CEAF92BF92CF92DF92EF92FF920F9302
:101410001F93CF93DF9300D000D01F92CDB7DEB7DC
:101420008C017B011D821C8280E0680128E0C20ED5
:10143000D11C0FB6F8940F92F801228D938D2917C5
:1014400008F078C0D28C448D41115AC080819181BE
:10145000892B11F080E009C0E480F580E114F104EB
:1014600021F580E0F80115821482D394F801D28E20
:101470009189992321F0C80141960E94D3068111D8
:101480000E941D080F900FBE81E00F900F900F90EB
:101490000F900F90DF91CF911F910F91FF90EF90E0
:1014A000DF90CF90BF90AF900895F70182A1815057
:1014B00082A3268991A12917A1F28111D2CF5701C8
:1014C000F2E0AF0EB11CC5010E94AF06F70181A189
:1014D000868B24E030E0281B3109358724879091E2
:1014E000E601981710F48093E601F9E08F9FC001A0
:1014F0001124B5018E539E4F0E948F0681E0B2CF1A
:1015000050E0B701828193810E949D14F801848D7F
:1015100022813381820F932F911D938382832481B3
:1015200035818217930708F495CF80819181938349
:10153000828390CF2C813D81232B21F40F900FBE0D
:1015400080E0A3CF811109C08091900189838091AF
:101550008E0190918F019B838A830F900FBE0E9412
:101560007E060FB6F8940F92F801858D8F3F09F42F
:10157000158EF801868D8F3F09F4168E0F900FBEE1
:10158000BE016C5F7F4FCE0101960E944106811122
:101590002AC00FB6F8940F92F801928D838D0F90A8
:1015A0000FBE98131AC0AC80BD8060915801709135
:1015B0005901645F7F4FC6010E94540761E0C50175
:1015C0000E94B407C8010E9412070E94DB08811123
:1015D00002C00E941D0881E02CCFC8010E941207A2
:1015E0000E94DB08F8CFC8010E9412070E94DB08A6
:1015F000A7CFCF93DF9300D000D01F92CDB7DEB737
:101600009C0180918C0190918D010097B9F0198215
:101610007B836A833D832C832091E801BE016F5F49
:101620007F4F211120918B010E94010A0F900F9092
:101630000F900F900F90DF91CF91089580E0F6CF3B
:10164000EF92FF920F931F93CF93DF93E09180016E
:10165000F09181018081811113C080917E01909170
:101660007F019093810180938001F0937F01E0934B
:101670007E01DF91CF911F910F91FF90EF90089520
:101680000580F681E02D00811181C681D7817E0120
:1016900082E0E80EF11CC7010E94AF06E889F989D3
:1016A000CE0109958A8982FFD1CF8C859D85800FD7
:1016B000911F0817190760F49B838A83D987C8870D
:1016C000B70180918001909181010E945407BECFA3
:1016D000B801CE010E94F90AB9CFEF92FF921F9391
:1016E000CF93DF93EC010FB6F8940F92892B21F47E
:1016F000C0915801D091590199A1691709F44BC0C3
:101700002091580130915901961768F42C173D0724
:1017100041F0E0915801F091590111E08689681774
:1017200030F410E004C011E02C173D07D1F78E898A
:10173000981301C06E8B69A32C853D8537FD06C0CB
:1017400024E030E0261B31093D872C8729E0829F69
:10175000C00111248E539E4F2A853B8528173907D7
:10176000B9F47E0182E0E80EF11CC7010E94AF06C9
:101770008E899091E601981710F48093E60129E094
:10178000829FC0011124B7018E539E4F0E948F0685
:1017900011110E941D080F900FBEDF91CF911F9174
:1017A000FF90EF9008950F920FB6F8940F921F924A
:1017B00011242F923F924F925F926F927F928F925D
:1017C0009F92AF92BF92CF92DF92EF92FF920F93D0
:1017D0001F932F933F934F935F936F937F938F93B9
:1017E0009F93AF93BF93CF93DF93EF93FF93A0911A
:1017F0005801B09159010DB60D920EB60D9213BE5F
:1018000080918B018111F6C080918E0190918F01A2
:10181000019690938F0180938E01009799F5209106
:101820009301309194014091910150919201509314
:101830009401409393013093920120939101209160
:1018400090012F5F20939001E0919301F09194011A
:101850002081211107C02FEF3FEF30937B012093B0
:101860007A0110C0E0919301F09194010580F68116
:10187000E02D0680F781E02D2281338130937B01BA
:1018800020937A0120917A0130917B01821793078E
:1018900010F420E09BC020E019E0E0919301F0916A
:1018A00094013081311107C08FEF9FEF90937B013E
:1018B00080937A018BC0E0919301F09194010580AF
:1018C000F681E02D0680F781E02D42815381841757
:1018D000950728F450937B0140937A0177C0AF01BC
:1018E0004E5F5F4FA285B38564817581E680F78086
:1018F000EB01FD82EC82C681D7817B836A831196DE
:101900006D917C9112974617570721F41296DC933C
:10191000CE931197138612863C9131503C933C91A3
:10192000A489B5891097F9F066857785E088F188F4
:10193000EB01FD82EC82C089D1897B836A83119699
:10194000ED90FC901297BF01645F7F4FE616F7069B
:1019500021F41296DC93CE931197158A148A3C9148
:1019600031503C933C91A6893091E6013A1710F42E
:10197000A093E6011A9FD0011124BD016E537E4F42
:101980007B01DB011196CD91DC91D583C4836C8101
:101990007D81778366836C817D81DB0113965C9307
:1019A0004E9312975D834C83F386E286E70138817C
:1019B0003F5F3883A0915801B091590146895696EE
:1019C0003C91431708F469CF21E067CFE0915801BB
:1019D000F0915901E689D9E0ED9FF0011124EE5311
:1019E000FE4F8081823008F021E0809178018111E2
:1019F0000EC00AC080917601909177010196909374
:101A00007701809376016AC0222309F467C0809130
:101A10008B01882321F081E0809378015FC01092D0
:101A20007801A0915801B0915901E0915801F091CD
:101A300059012D913C918789908D82179307A8F0C9
:101A400080915801909159018091580190915901CC
:101A5000259A2D9A2FEF67EA71E621506040704079
:101A6000E1F700C000001D9AF5CF2091E60189E062
:101A700001C02150422F50E0849FF001859FF00D5E
:101A80001124EE53FE4F9081992399F3A181B281E5
:101A900012960D90BC91A02DB283A183289FC00106
:101AA00011248B539E4FA817B90729F412968D91D4
:101AB0009C919283818389E0849FF001859FF00D42
:101AC0001124EE53FE4F0180F281E02D8681978133
:101AD00090935901809358012093E601A0915801F9
:101AE000B0915901CD91CDBFDD91DEBFFF91EF9156
:101AF000DF91CF91BF91AF919F918F917F916F9126
:101B00005F914F913F912F911F910F91FF90EF9017
:101B1000DF90CF90BF90AF909F908F907F906F900D
:101B20005F904F903F902F901F900F900FBE0F909F
:101B30000895CF93DF93009751F0EC010E947E0649
:101B4000CE010E94BB12DF91CF910C94DB08DF9194
:101B5000CF910895CF93DF93CDB7DEB72A970FB615
:101B6000F894DEBF0FBECDBFE0918001F0918101FE
:101B7000F08010E000E0FF2029F00580F681E02DE4
:101B8000008111810E947E060E9474066C01809182
:101B90007C0190917D01C816D90608F07CC00E9496
:101BA000200BD0927D01C0927C010E94DB08009145
:101BB0008C0110918D011A86198680E06801B1E1CF
:101BC000CB0ED11C0FB6F8940F92F801F28CFF20C7
:101BD00009F418C1448D4423C1F050E086819781F7
:101BE000840F951F978386832481358182179307FD
:101BF00020F08081918197838683D80116966D911C
:101C00007C91CE0101960E949D14FA94F801F28E07
:101C10008085882339F0C80108960E94D306811177
:101C20000E941D080F900FBED980D7FCC0CF0C8139
:101C30001D81D8011A968D919C91892B21F0C801A4
:101C400002960E94AF060E9474067C0180917C017E
:101C500090917D01E816F90610F40E94200BF09295
:101C60007D01E0927C01B9E0BD1508F4A0CFED2D17
:101C7000DD0CFF0BEF5BF14FD80152968C910C9469
:101C80009714C50EC50EC50EFD0EE80EF70EC50E57
:101C9000C50EFD0EE80ED0927D01C0927C01FF20A2
:101CA00099F1C016D106C0F10E94DB08E0918001D5
:101CB000F09181010580F681E02DE680F780C70173
:101CC00002960E94AF06D70152968C91529782FFDE
:101CD00017C01C966D917C91600F711F9801A60131
:101CE000C7010E948A07882321F0B801C7010E941A
:101CF000F90AD7015096ED91FC91C701099557CF8C
:101D00008E7FF701828BF5CFE0917E01F0917F010C
:101D10008081BB24B3948111B12CE0908C01F090B0
:101D20008D010FB6F8940F92F701858D8F3F09F45E
:101D3000158ED7015E968C915E978F3F11F45E965B
:101D40001C920F900FBEF701828D811114C060911B
:101D5000580170915901645F7F4FC70141960E94FD
:101D60008F06C8018C199D09BB2011F08FEF9FEFE2
:101D70006B2D0E94B407C7010E9412070E94DB0866
:101D8000811115CF0E941D0812CF8160F801828B4E
:101D9000CA80DB80648575856C0D7D1D9601A70169
:101DA000C8010E948A07882309F401CFD801509600
:101DB000ED91FC91C8010995F801828982FFF7CE67
:101DC000648575856C0D7D1DC8010E94F90AEFCEF2
:101DD0008160F801828B6A817B81758764876E0DD3
:101DE0007F1D9701A701C8010E948A07E0CE81FDEF
:101DF00004C0C8010E94990DDACE8E7FD801529698
:101E00008C93D5CE29853A85232B19F40F900FBEDC
:101E1000ABCE811109C0809190018E8380918E019B
:101E200090918F0198878F830F900FBE0E947E063E
:101E30000FB6F8940F92D8015D968C915D978F3F05
:101E400011F45D961C92F801868D8F3F09F4168E71
:101E50000F900FBEBE01675F7F4FCE0106960E94B6
:101E60004106811125C0C8010E9484068823D1F053
:101E7000E984FA846091580170915901645F7F4F41
:101E8000C6010E94540761E0C7010E94B407C8015F
:101E90000E9412070E94DB08811102C00E941D08E7
:101EA00081E090CEC8010E9412070E94DB08F8CFA3
:101EB000C8010E9412070E94DB08C8010E94840624
:101EC000882371F351CECF93DF93EC010E947E06FD
:101ED000CE010E941F12EC010E94DB08209769F4DA
:101EE000259A2D9A2FEF80E792E021508040904074
:101EF000E1F700C000001D9AF5CFCE01DF91CF9130
:101F000008957F928F929F92AF92BF92CF92DF926D
:101F1000EF92FF920F931F93CF93DF93982EA92EEA
:101F2000762E872E7A01B22ECA010E94630F6C01B1
:101F3000892B09F4CDC088E290E00E94630FEC0188
:101F4000892B09F4C2C0D88ECF8AA70165EA70E058
:101F5000C6010E94A61421E0E21AF108EF89F88D6B
:101F6000EE0DFF1D672D782DCE0149969B01285F50
:101F70003F4FDB014D91BD01DC014D93CD01AB0124
:101F800041505109DA014C91442319F0621773074B
:101F900081F718A2BE8AB9A21AA21B861A861D8AC8
:101FA0001C8AD987C88784E090E08B1991099D87A6
:101FB0008C87DB8BCA8B1BA21CA21DA21EA21FA298
:101FC0009082DF011197AC9211971C92119780E8D3
:101FD0008C9311971C9257971C9211971C92B39750
:101FE000F983E883F801D183C0830FB6F8940F9288
:101FF0008091E9018F5F8093E90180915801909170
:102000005901892B09F073C0D0935901C09358012D
:102010008091E901813081F582EC91E00E940F0806
:102020008BEC91E00E940F0884ED91E00E940F0874
:102030008DED91E00E940F0889EB91E00E940F085E
:1020400080EB91E00E940F0887EA91E00E940F0860
:102050008EE991E00E940F0885E991E00E940F0847
:1020600089EB91E0909394018093930180EB91E050
:1020700090939201809391018091E7018F5F80930B
:10208000E7018E899091E601981710F48093E6019C
:10209000F9E08F9FC0011124BE016E5F7F4F8E5308
:1020A0009E4F0E948F060F900FBE8091E8018823FB
:1020B00051F0E0915801F091590196898E89981755
:1020C00010F40E941D0881E004C0C6010E94990D11
:1020D0008FEFDF91CF911F910F91FF90EF90DF90E5
:1020E000CF90BF90AF909F908F907F9008958091F8
:1020F000E8018111C1CFE0915801F09159019E8909
:102100008689981708F4B8CFD0935901C093580125
:10211000B3CF0F931F93CF93DF9304E711E020E039
:1021200040EC50E063E471E080E295E00E94810FB2
:10213000813009F0B3C00FB6F8940F9280918C01F2
:1021400090918D01892B09F04FC089E691E00E94A2
:102150000F0880E691E00E940F0889E691E09093D5
:1021600081018093800180E691E090937F018093CC
:102170007E0181E590E00E94630FEC01009781F100
:102180004F96998388838AE08B8F85E08C8F0FB67A
:10219000F8940F92888199812B8D4C8DBC01249FDE
:1021A000600D711D11247D836C831A8E9B838A833D
:1021B0002150330B429FB001439F700D1124860FB5
:1021C000971F9F838E838FEF8D8F8E8FCE01089602
:1021D0000E940F08CE0141960E940F080F900FBE7B
:1021E000D0938D01C0938C010F900FBE80918C0114
:1021F00090918D01892B09F451C002E711E023E091
:1022000045E550E068E471E08AEA9DE00E94810FB4
:10221000813009F043C0F8942FEF3FEF30937B01FA
:1022200020937A018093E80110928F0110928E0121
:10223000A89588E190EC0FB6F894A895809360007B
:102240000FBE90936000A0915801B0915901CD91BB
:10225000CDBFDD91DEBFFF91EF91DF91CF91BF91B7
:10226000AF919F918F917F916F915F914F913F912E
:102270002F911F910F91FF90EF90DF90CF90BF9023
:10228000AF909F908F907F906F905F904F903F9016
:102290002F901F900F900FBE0F900895DF91CF9158
:1022A0001F910F9108950E94D30B1895EAEEF1E06B
:1022B0001382128288EE93E0A0E0B0E084839583DD
:1022C000A683B7838AE091E09183808385EC90E0D8
:1022D0009587848784EC90E09787868780EC90E0F0
:1022E000918B808B81EC90E0938B828B82EC90E0E1
:1022F000958B848B86EC90E0978B868B118E128E5B
:10230000138E148EA8EBB2E011961C921E921296B8
:102310001C921297EFE9F2E0B183A083138212823C
:1023200015821482168217821086118612861386F1
:102330001486158616861786108A118A138A128AC1
:10234000158A148A168A108E178AE7E8F2E013823B
:1023500012828CE191E0918380838CE084838FEF03
:1023600085838BE0868384E0878385E0808786E0B1
:10237000818787E0828713861486158616861786DE
:1023800081E00C945A03789484B5826084BD84B54E
:10239000816084BD85B5826085BD85B5816085BD60
:1023A00080916E00816080936E0010928100809118
:1023B00081008260809381008091810081608093A0
:1023C0008100809180008160809380008091B100C5
:1023D00084608093B1008091B00081608093B000F0
:1023E00080917A00846080937A0080917A00826084
:1023F00080937A0080917A00816080937A00809146
:102400007A00806880937A001092C10020910401C4
:10241000309105018FEF98E0821B930B909301019F
:10242000809300010E9453050E9489100E94530569
:10243000C0E0D0E02097F1F30E941F01FBCF0F9383
:102440001F93CF93DF938230910510F482E090E0E8
:10245000E091BD02F091BE0230E020E0B0E0A0E0EB
:10246000309799F42115310509F44AC0281B390B1E
:1024700024303105D8F58A819B816115710589F178
:10248000FB0193838283FE0111C04081518102814F
:10249000138148175907E0F04817590799F4109726
:1024A00061F012960C93129713961C933296CF01FB
:1024B000DF91CF911F910F9108950093BD0210936A
:1024C000BE02F4CF2115310551F04217530738F001
:1024D000A901DB019A01BD01DF01F801C1CFEF01C4
:1024E000F9CF9093BE028093BD02CDCFFE01E20FE3
:1024F000F31F819391932250310939832883D7CFD9
:102500002091BB023091BC02232B41F420910201A7
:10251000309103013093BC022093BB022091000153
:10252000309101012115310541F42DB73EB740919D
:10253000040150910501241B350BE091BB02F09181
:10254000BC02E217F307A0F42E1B3F0B2817390734
:1025500078F0AC014E5F5F4F2417350748F04E0FFF
:102560005F1F5093BC024093BB02819391939FCF16
:10257000F0E0E0E09CCFCF93DF930097E9F0FC011F
:10258000329713821282A091BD02B091BE02ED017A
:1025900030E020E01097A1F420813181820F931F59
:1025A0002091BB023091BC022817390709F061C0A5
:1025B000F093BC02E093BB02DF91CF910895EA0152
:1025C000CE17DF07E8F54A815B819E014115510571
:1025D000B1F7E901FB83EA8349915991C40FD51FF3
:1025E000EC17FD0761F4808191810296840F951F9D
:1025F000E90199838883828193819B838A83F0E0B8
:10260000E0E012968D919C9113970097B9F52D916A
:102610003C911197CD010296820F931F2091BB022E
:102620003091BC022817390739F6309751F51092CE
:10263000BE021092BD02B093BC02A093BB02BCCFFD
:10264000D383C28340815181840F951FC817D90756
:1026500061F44E5F5F4F88819981480F591F518304
:1026600040838A819B81938382832115310509F000
:10267000B0CFF093BE02E093BD029ECFFD01DC011E
:10268000C0CF13821282D7CF0E944B136894B1112E
:102690000C94DA1308950E94BF1388F09F5798F0A6
:1026A000B92F9927B751B0F0E1F0660F771F881F57
:1026B000991F1AF0BA95C9F714C0B13091F00E9471
:1026C000D913B1E008950C94D913672F782F882778
:1026D000B85F39F0B93FCCF3869577956795B39598
:1026E000D9F73EF490958095709561957F4F8F4F07
:1026F0009F4F0895E89409C097FB3EF4909580950C
:10270000709561957F4F8F4F9F4F9923A9F0F92FB7
:1027100096E9BB279395F695879577956795B79535
:10272000F111F8CFFAF4BB0F11F460FF1BC06F5F1B
:102730007F4F8F4F9F4F16C0882311F096E911C02D
:10274000772321F09EE8872F762F05C0662371F04E
:1027500096E8862F70E060E02AF09A95660F771F62
:10276000881FDAF7880F9695879597F9089557FD92
:102770009058440F551F59F05F3F71F04795880FEF
:1027800097FB991F61F09F3F79F087950895121686
:1027900013061406551FF2CF4695F1DF08C0161632
:1027A00017061806991FF1CF8695710561050894E3
:1027B0000895E894BB2766277727CB0197F90895FA
:1027C0000E94F3130C9464140E94561438F00E9473
:1027D0005D1420F0952311F00C944D140C945314B7
:1027E00011240C94DA130E94B71370F3959FC1F370
:1027F000950F50E0551F629FF001729FBB27F00DAF
:10280000B11D639FAA27F00DB11DAA1F649F662703
:10281000B00DA11D661F829F2227B00DA11D621F52
:10282000739FB00DA11D621F839FA00D611D221F0C
:10283000749F3327A00D611D231F849F600D211DF0
:10284000822F762F6A2F11249F5750409AF0F1F073
:1028500088234AF0EE0FFF1FBB1F661F771F881FDC
:1028600091505040A9F79E3F510580F00C944D14B3
:102870000C94DA135F3FE4F3983ED4F38695779592
:102880006795B795F795E7959F5FC1F7FE2B880F82
:10289000911D9695879597F9089597F99F6780E818
:1028A00070E060E008959FEF80EC089500240A94A2
:1028B0001616170618060906089500240A9412161B
:1028C0001306140605060895092E0394000C11F44E
:1028D000882352F0BB0F40F4BF2B11F460FF04C0FB
:1028E0006F5F7F4F8F4F9F4F0895A1E21A2EAA1B53
:1028F000BB1BFD010DC0AA1FBB1FEE1FFF1FA217B0
:10290000B307E407F50720F0A21BB30BE40BF50BAC
:10291000661F771F881F991F1A9469F76095709535
:10292000809590959B01AC01BD01CF010895EE0FFC
:10293000FF1F0590F491E02D0994FB01DC0102C01A
:1029400001900D9241505040D8F70895DC0101C02C
:0E2950006D9341505040E0F70895F894FFCF8A
:10295E000000BF028000000000004E01AB00D80056
:10296E009B010901E700FB0000000000FC03AB0027
:10297E00AE02AD024F46464C494E45004E6F726D4B
:10298E00616C004865617400537568753A200020CB
:10299E0043200049444C4500546D72205376630029
:0829AE004F6E650054776F00C5
:00000001FF
