:100000000C9462000C948A000C948A000C948A0070
:100010000C948A000C948A000C9468110C948A0049
:100020000C948A000C948A000C948A000C948A0028
:100030000C948A000C948A000C948A000C948A0018
:100040000C940C060C948A000C94DA050C94B405FC
:100050000C948A000C948A000C948A000C948A00F8
:100060000C948A000C948A000000000023002600F3
:10007000290000000008000201000003040700003E
:1000800000000000000000000000250028002B00F8
:1000900000000000240027002A00040404040404D3
:1000A0000404020202020202030303030303010227
:1000B00004081020408001020408102001020408F6
:1000C00010206B1111241FBECFEFD8E0DEBFCDBFD3
:1000D00011E0A0E0B1E0E8E8F9E202C005900D927D
:1000E000AE35B107D9F722E0AEE5B1E001C01D920F
:1000F000A53CB207E1F710E0C2E6D0E004C02197CA
:10010000FE010E94AC14C136D107C9F70E94D81174
:100110000C94C2140C94000090E0FC01E255FF4FD7
:10012000249186569F4FFC018491882399F090E09A
:10013000880F991FFC01E057FF4FA591B491FC0176
:10014000EA57FF4F859194918FB7F894EC91E22B89
:10015000EC938FBF0895AF92BF92CF92DF92EF9250
:10016000FF920F931F93CF93DF936C017B018B0161
:10017000040F151FEB015E01AE18BF08C017D107B1
:1001800059F06991D601ED91FC910190F081E02D3B
:10019000C6010995892B79F7C501DF91CF911F9190
:1001A0000F91FF90EF90DF90CF90BF90AF900895A8
:1001B000FC01538D448D252F30E0842F90E0821B6D
:1001C000930B541710F0CF96089501970895FC01F2
:1001D000918D828D981761F0A28DAE0FBF2FB11D4A
:1001E0005D968C91928D9F5F9F73928F90E00895A2
:1001F0008FEF9FEF0895FC01918D828D981731F05C
:10020000828DE80FF11D858D90E008958FEF9FEFAF
:100210000895FC01918D228D892F90E0805C9F4F85
:10022000821B91098F739927089580EF91E00E94B6
:10023000090121E0892B09F420E0822F08950E9412
:10024000150181110C940000089580E090E0892B45
:1002500011F00C941F010895FC01A48DA80FB92F73
:10026000B11DA35ABF4F2C91848D90E001968F73DE
:100270009927848FA689B7892C93A089B1898C91FD
:10028000837080648C93938D848D981306C002884C
:10029000F389E02D80818F7D80830895EF92FF9216
:1002A0000F931F93CF93DF93EC0181E0888F9B8D99
:1002B0008C8D98131AC0E889F989808185FF15C053
:1002C0009FB7F894EE89FF896083E889F989808176
:1002D0008370806480839FBF81E090E0DF91CF9145
:1002E0001F910F91FF90EF900895F62E0B8D10E067
:1002F0000F5F1F4F0F731127E02E8C8D8E110CC0D6
:100300000FB607FCFACFE889F989808185FFF5CF20
:10031000CE010E942C01F1CFEB8DEC0FFD2FF11DD2
:10032000E35AFF4FF0829FB7F8940B8FEA89FB895D
:1003300080818062CFCFCF93DF93EC01888D8823BB
:10034000B9F0AA89BB89E889F9898C9185FD03C038
:10035000808186FD0DC00FB607FCF7CF8C9185FF1D
:10036000F2CF808185FFEDCFCE010E942C01E9CF35
:10037000DF91CF910895833081F028F4813099F096
:100380008230A9F008958730A9F08830C9F0843010
:10039000B1F4809180008F7D03C0809180008F77C1
:1003A00080938000089584B58F7784BD089584B5C7
:1003B0008F7DFBCF8091B0008F778093B000089540
:1003C0008091B0008F7DF9CFCF93DF93282F30E05D
:1003D000F901EE58FF4F8491F901E255FF4FD49196
:1003E000F901E656FF4FC491CC23A1F081110E9480
:1003F000BB01EC2FF0E0EE0FFF1FE859FF4FA59176
:10040000B491EC91ED2381E090E009F480E0DF917C
:10041000CF91089580E090E0FACF1F93CF93DF93C0
:10042000282F30E0F901EE58FF4F8491F901E25591
:10043000FF4FD491F901E656FF4FC491CC23A9F0A8
:10044000162F81110E94BB01EC2FF0E0EE0FFF1F71
:10045000EA57FF4FA591B4918FB7F894EC91111121
:1004600008C0D095DE23DC938FBFDF91CF911F9121
:100470000895DE2BF8CF3FB7F89480918D019091CD
:100480008E01A0918F01B091900126B5A89B05C067
:100490002F3F19F00196A11DB11D3FBFBA2FA92F03
:1004A000982F8827BC01CD01620F711D811D911D00
:1004B00042E0660F771F881F991F4A95D1F708956C
:1004C0008F929F92AF92BF92CF92DF92EF92FF9264
:1004D0004B015C010E943B026B017C010E943B02CC
:1004E0006C197D098E099F09683E7340810591054D
:1004F000A8F321E0821A9108A108B10888EEC80E7D
:1005000083E0D81EE11CF11C81149104A104B10404
:1005100029F7FF90EF90DF90CF90BF90AF909F9022
:100520008F900895E0919901F0919A018081811155
:1005300007C08FEF9FEF9093810180938001089512
:10054000E0919901F0919A010580F681E02D0680F5
:10055000F781E02D82819381EECF089590E080E0D5
:1005600008958F929F92AF92BF920F931F93CF9354
:10057000DF93CDB7DEB7A1970FB6F894DEBF0FBEFD
:10058000CDBF19A2423008F44AE08E010F5D1F4F23
:10059000842E912CB12CA12CA50194010E948A14C7
:1005A000E62FB901CA01EA3044F5E05DD801EE93C7
:1005B0008D01232B242B252B79F790E080E01097D9
:1005C00069F0FD0101900020E9F73197AF014A1B66
:1005D0005B0BBD018DE892E00E94AB00A1960FB6C7
:1005E000F894DEBF0FBECDBFDF91CF911F910F9169
:1005F000BF90AF909F908F900895E95CD7CFFC019A
:1006000001900020E9F73197AF01481B590BBC015D
:100610008DE892E00C94AB00CF93DF93EC0160E0A7
:100620008E810E940D0261E08E810E940D0260E0C9
:100630008E810E940D028BE891E00197F1F7DF9126
:10064000CF910895CF92DF92EF92FF920F931F9375
:10065000CF93DF936C017C0187E0E80EF11CD0E0C2
:10066000C0E0062F10E0B8010C2E02C0759567950A
:100670000A94E2F76170F70181917F010E940D02F7
:100680002196C430D10579F7C601DF91CF911F9132
:100690000F91FF90EF90DF90CF900C940C03CF92CE
:1006A000DF92EF92FF920F931F93CF93DF93EC01B2
:1006B000F62E642F8C810E940D028D818F3F19F0E0
:1006C00060E00E940D020F2D10E08F8584FF25C091
:1006D0006E0187E0C80ED11CF12CE12CB8010E2C64
:1006E00002C0759567950A94E2F76170F6018191F1
:1006F0006F010E940D02FFEFEF1AFF0A88E0E81673
:10070000F10461F7CE01DF91CF911F910F91FF901E
:10071000EF90DF90CF900C940C03B80184E07595B6
:1007200067958A95E1F7CE010E9422036F2DCE01D5
:10073000DF91CF911F910F91FF90EF90DF90CF90BD
:100740000C94220340E0682F8DE892E00C944F0354
:10075000CF93DF93823029F490919C02986090931C
:100760009C028093A0021092A10280E48093A202D6
:1007700080E18093A30280E58093A402809191029E
:100780000E948C00809192028F3F11F00E948C0099
:10079000809193020E948C00CDE8D2E09E012D58FA
:1007A000324080919C0284FD0AC084E090E0219652
:1007B000281739073CF48E810E948C00EFCF88E027
:1007C00090E0F5CF8BE39DE00197F1F760E0809139
:1007D00091020E940D0260E0809193020E940D023E
:1007E000809192028F3F19F060E00E940D0280918B
:1007F0009C0284FD39C063E08DE892E00E942203F0
:10080000CBE4D6E4CE010197F1F763E08DE892E006
:100810000E9422032197F1F763E08DE892E00E94A5
:10082000220383E592E00197F1F762E08DE892E020
:100830000E94220380919C0280620E94A20384E0B5
:1008400080939D028CE00E94A20381E00E94A2039B
:100850008BE39FE10197F1F782E080939E0286E0AF
:10086000DF91CF910C94A20380620E94A2038BE4DB
:1008700096E40197F1F780919C0280620E94A203A6
:1008800083E592E00197F1F780919C0280620E94DB
:10089000A203D0CF41E00E944F0381E090E0089591
:1008A00081E10E94E401019751F460E083E00E943D
:1008B0000D0268EE73E080E090E00E9460028FE03D
:1008C0000E94E401019751F460E082E00E940D0271
:1008D00068EE73E080E090E00E946002E1E08091C9
:1008E000A0028111E0E0E195F0E0E357FD4F84893B
:1008F00080680E94A20347E050E064E271E08DE866
:1009000092E00E94AB0082E10E94E401019741F66F
:1009100062E080916401909165010E94820B61E028
:1009200080916201909163010E94820BB9CF10E423
:10093000CBE3DFE110937C0080917A0080648093A8
:100940007A0080917A0086FDFCCF809178006091DA
:100950007900762F682F072E000C880B990B0E94C8
:10096000911320E030E04AEF5EE30E94F5130E940D
:1009700059137093610160936001693171050CF046
:100980005FC08CE291E00E94FF0261E083E00E9480
:100990000D0260E082E00E940D02E091A002E230D0
:1009A00008F061C0E150F0E0E357FD4F84898068B2
:1009B0000E94A2038EE391E00E94FF02C0906001BA
:1009C000D09061010D2C000CEE08FF084AE0C70131
:1009D000B601F7FE0EC041E06DE28DE892E00E94A4
:1009E0004F0366277727CB016C197D098E099F0974
:1009F0004AE00E94B10285E491E00E94FF0268ECA7
:100A000070E080E090E00E94600281E00E94A2031A
:100A1000CE010197F1F780E10E94E401019709F00E
:100A200089CF61E080916401909165010E94820B01
:100A300062E080916201909163010E94820B7ACF03
:100A40006D31710534F482E391E00E94FF0260E0B1
:100A50009DCF89E391E00E94FF0260E083E00E9465
:100A60000D0261E097CFE1E09ECF00E010E08091C1
:100A70007F0181110CC08091C801823010F00E946A
:100A800032080115110599F30E941F01F0CF0FB62E
:100A9000F8940F92E091A901F091AA01C681D78143
:100AA000CE0102960E94C4068091EF01815080938E
:100AB000EF0180917F01815080937F010F900FBEE5
:100AC0008F89988D0E94AE0DCE010E94AE0DCFCFC2
:100AD0000F931F93E0EFF1E0A089B18982E08C933E
:100AE000A485B5851C92A685B7858FEC8C93108E56
:100AF000A489B58986E08C93A289B3898C918061A1
:100B00008C93A289B3898C9188608C93A289B389D4
:100B10008C9180688C930288F389E02D80818F7D91
:100B2000808382E00E94A80383E00E948C0082E020
:100B30000E948C0004E611E022E040E850E066E507
:100B400071E087E994E00E94960F02E611E021E04F
:100B500040E850E06AE571E080E594E00E94960F7D
:100B60001F910F910C949E101F920F920FB60F922F
:100B700011242F933F934F935F936F937F938F93A2
:100B80009F93AF93BF93EF93FF9380EF91E00E9409
:100B90002C01FF91EF91BF91AF919F918F917F9128
:100BA0006F915F914F913F912F910F900FBE0F90DA
:100BB0001F9018951F920F920FB60F9211242F932A
:100BC0008F939F93EF93FF93E0910002F0910102C6
:100BD0008081E0910602F091070282FD1BC09081A6
:100BE000809109028F5F8F7320910A02821741F072
:100BF000E0910902F0E0E051FE4F958F80930902E9
:100C0000FF91EF919F918F912F910F900FBE0F90B9
:100C10001F9018958081F4CF1F920F920FB60F92FC
:100C200011242F933F938F939F93AF93BF93809102
:100C3000890190918A01A0918B01B0918C01309132
:100C4000880123E0230F2D3758F50196A11DB11D12
:100C5000209388018093890190938A01A0938B014E
:100C6000B0938C0180918D0190918E01A0918F01A4
:100C7000B09190010196A11DB11D80938D019093BB
:100C80008E01A0938F01B0939001BF91AF919F917E
:100C90008F913F912F910F900FBE0F901F9018953D
:100CA00026E8230F0296A11DB11DD2CFFC01DB0166
:100CB0000FB6F8940F9240919401509195012D91A7
:100CC0003C9111972F3F3207E1F081819281609131
:100CD00096017081761719F048175907C0F4481B20
:100CE000590B4217530788F4241B350B2D933C9363
:100CF00080919601808380919401909195019283D7
:100D0000818380E00F900FBE08951D921C9281E0B8
:100D1000F9CF0FB6F8940F928091940190919501BC
:100D20000F900FBE0895809191018F5F8093910184
:100D300008950FB6F8940F92FC01928D0F900FBE9C
:100D400081E0911180E00895CF93DF939C01FB0136
:100D5000DC011196CD91DC91D383C2838C819D817E
:100D6000958384838C819D81DC0113967C936E93A3
:100D700012977D836C8331872087F90180818F5F93
:100D80008083DF91CF910895CF93DF93FC01A085FD
:100D9000B1858281938124813581EC013D832C834F
:100DA000C481D5819B838A8311968D919C911297E2
:100DB0008E179F0721F41296DC93CE93119711861C
:100DC00010868C9181508C938C91DF91CF910895F6
:100DD0000F931F93CF93DF93DC011596ED91FC9158
:100DE000C681D7818E01045F1F4FC8010E94C406CF
:100DF00080919101811125C00A501109C8010E94FA
:100E0000C4068E899091EC01981710F48093EC0140
:100E1000B9E08B9FC0011124B80188539E4F0E94F6
:100E2000A406E0915E01F0915F019E898689891791
:100E300060F481E080937E01DF91CF911F910F914B
:100E40000895B8018DEA91E0EACF80E0F5CFEF9206
:100E5000FF920F931F93CF93DF93EC010FB6F8949B
:100E60000F921E8D7C0181E1E80EF11C01E011164C
:100E7000D4F08FEF8E8F0F900FBE0FB6F8940F92B5
:100E80001D8D7E0188E0E80EF11C01E01116B4F022
:100E90008FEF8D8F0F900FBEDF91CF911F910F912C
:100EA000FF90EF9008958989882319F3C7010E9464
:100EB000E806811100937E011150D9CF88858823DF
:100EC00039F3C7010E94E806811100937E01115099
:100ED000DDCF0F931F93CF93DF938C01FB018081B4
:100EE0009181D80113968F3F9807F1F4E801AF8103
:100EF000B88512968D919C91139793838283EC0110
:100F0000FD83EC83B583A4831396FC93EE93129731
:100F100011870087F80180818F5F8083DF91CF91F7
:100F20001F910F910895D90112962D913C9113971D
:100F3000E9014881598184179507A8F7DACFFC01A8
:100F400073836283918780874617570790F0421B0F
:100F5000530B8485958548175907C8F4BF016E5F08
:100F60007F4F80918401909185010E94690780E004
:100F700008954217530718F46217730740F4BF012E
:100F80006E5F7F4F8091860190918701EECF81E067
:100F90000895FF920F931F93CF93DF93EC01F62EEA
:100FA000009194011091950180915E0190915F01F3
:100FB00002960E94C406CF3FDC0789F4FF2079F037
:100FC00060915E0170915F016E5F7F4F8BE991E0F0
:100FD000DF91CF911F910F91FF900C94A406C00F49
:100FE000D11FE0915E01F0915F01D383C2836091D4
:100FF0005E0170915F01C017D10768F4809197017D
:10100000909198016E5F7F4FDF91CF911F910F916B
:10101000FF900C9469078091990190919A016E5FFD
:101020007F4F0E9469078091800190918101C817CC
:10103000D90720F4D0938101C0938001DF91CF9133
:101040001F910F91FF900895FC0103969283818375
:101050002FEF3FEF348323839683858390878783A5
:10106000108208950F920FB6F8940F921F921124D8
:101070002F923F924F925F926F927F928F929F92A8
:10108000AF92BF92CF92DF92EF92FF920F931F9396
:101090002F933F934F935F936F937F938F939F9380
:1010A000AF93BF93CF93DF93EF93FF93A0915E0134
:1010B000B0915F010DB60D920EB60D928091910127
:1010C000882321F081E080937E015FC010927E0131
:1010D000A0915E01B0915F01E0915E01F0915F012E
:1010E0002D913C918789908D82179307A8F080916C
:1010F0005E0190915F0180915E0190915F01259A60
:101100002D9A2FEF87EA91E6215080409040E1F739
:1011100000C000001D9AF5CF2091EC0189E001C0CC
:101120002150422F50E0849FF001859FF00D112443
:10113000E853FE4F9081992399F3A181B2811296D1
:101140000D90BC91A02DB283A183289FC0011124D2
:1011500085539E4FA817B90729F412968D919C913B
:101160009283818389E0849FF001859FF00D112493
:10117000E853FE4F0180F281E02D868197819093A4
:101180005F0180935E012093EC01A0915E01B0911C
:101190005F01CD91CDBFDD91DEBFFF91EF91DF917A
:1011A000CF91BF91AF919F918F917F916F915F91FF
:1011B0004F913F912F911F910F91FF90EF90DF90F2
:1011C000CF90BF90AF909F908F907F906F905F90E7
:1011D0004F903F902F901F900F900FBE0F9008954B
:1011E0007F928F929F92AF92BF92CF92DF92EF92B7
:1011F000FF920F931F93CF93DF930FB6F8940F9244
:101200008091910181508093910180919101882377
:1012100089F080E00F900FBEDF91CF911F910F9169
:10122000FF90EF90DF90CF90BF90AF909F908F9006
:101230007F9008958091EF01882359F3D0E0C0E0BA
:1012400029E0F22EEE24E39429C0E091B201F0915E
:10125000B301C681D781CE010C960E94C4068E01CF
:101260000E5F1F4FC8010E94C4068E899091EC0149
:10127000981710F48093EC018F9DC0011124B801E0
:1012800088539E4F0E94A406E0915E01F0915F0199
:101290009E898689981710F0E0927E018091AD01B9
:1012A0008111D3CFCD2B11F00E949202E0907C01EE
:1012B000F0907D01E114F10409F4AFC089E0A82E9B
:1012C00077247394CC24CA94DC2C809191018111F1
:1012D00092C0C0919401D09195012196D09395012F
:1012E000C09394012097B9F48091990190919A014B
:1012F000209197013091980130939A0120939901A0
:101300009093980180939701809196018F5F8093CD
:1013100096010E9492028091800190918101B12CEE
:10132000C817D90708F05BC0E0915E01F0915F013A
:10133000E689AE9EF0011124E853FE4F8081823091
:1013400010F0BB24B39480917E01811103C0BB20B7
:1013500009F45AC070927E0157C0E0919901F09152
:101360009A010580F681E02D06811781D801129639
:101370008D919C91C817D90728F49093810180938F
:101380008001D2CF4801B2E08B0E911CC4010E94B3
:10139000C406F80184899589892B21F0C8010C962F
:1013A0000E94C406D80156968C919091EC01981732
:1013B00010F48093EC018A9DC0011124B40188537C
:1013C0009E4F0E94A406E0915E01F0915F01D8015A
:1013D00056969C918689981710F0BB24B394E0919F
:1013E0009901F0919A0180818111B7CFD09281014A
:1013F000C092800199CF80917C0190917D010196EE
:1014000090937D0180937C01B1E0EB1AF10809F023
:101410005CCF10927D0110927C0180917E01882327
:1014200009F4F7CE0E94320881E0F4CEAF92BF9269
:10143000CF92DF92EF92FF920F931F93CF93DF93A0
:1014400000D000D01F92CDB7DEB78C017B011D828A
:101450001C8280E0680128E0C20ED11C0FB6F8940F
:101460000F92F801228D938D291708F078C0D28C45
:10147000448D41115AC080819181892B11F080E007
:1014800009C0E480F580E114F10421F580E0F80161
:1014900015821482D394F801D28E9189992321F078
:1014A000C80141960E94E80681110E9432080F90FF
:1014B0000FBE81E00F900F900F900F900F90DF9173
:1014C000CF911F910F91FF90EF90DF90CF90BF9041
:1014D000AF900895F70182A1815082A3268991A13E
:1014E0002917A1F28111D2CF5701F2E0AF0EB11C42
:1014F000C5010E94C406F70181A1868B24E030E07B
:10150000281B3109358724879091EC01981710F436
:101510008093EC01F9E08F9FC0011124B50188533D
:101520009E4F0E94A40681E0B2CF50E0B7018281B5
:1015300093810E94B214F801848D22813381820F3D
:10154000932F911D93838283248135818217930782
:1015500008F495CF808191819383828390CF2C81F1
:101560003D81232B21F40F900FBE80E0A3CF81118A
:1015700009C0809196018983809194019091950191
:101580009B838A830F900FBE0E9493060FB6F89438
:101590000F92F801858D8F3F09F4158EF801868D25
:1015A0008F3F09F4168E0F900FBEBE016C5F7F4F08
:1015B000CE0101960E94560681112AC00FB6F894FA
:1015C0000F92F801928D838D0F900FBE98131AC061
:1015D000AC80BD8060915E0170915F01645F7F4F60
:1015E000C6010E94690761E0C5010E94C907C801E0
:1015F0000E9427070E94F008811102C00E94320851
:1016000081E02CCFC8010E9427070E94F008F8CF84
:10161000C8010E9427070E94F008A7CFCF93DF934D
:1016200000D000D01F92CDB7DEB79C01809192010F
:10163000909193010097B9F019827B836A833D836F
:101640002C832091EE01BE016F5F7F4F211120910D
:1016500091010E94160A0F900F900F900F900F901B
:10166000DF91CF91089580E0F6CFEF92FF920F9334
:101670001F93CF93DF93E0918601F09187018081E2
:10168000811113C08091840190918501909387010D
:1016900080938601F0938501E0938401DF91CF91DF
:1016A0001F910F91FF90EF9008950580F681E02D36
:1016B00000811181C681D7817E0182E0E80EF11C94
:1016C000C7010E94C406E889F989CE0109958A8973
:1016D00082FFD1CF8C859D85800F911F0817190738
:1016E00060F49B838A83D987C887B701809186017C
:1016F000909187010E946907BECFB801CE010E9478
:101700000E0BB9CFEF92FF921F93CF93DF93EC01B3
:101710000FB6F8940F92892B21F4C0915E01D091FD
:101720005F0199A1691709F44BC020915E013091C6
:101730005F01961768F42C173D0741F0E0915E01B8
:10174000F0915F0111E08689681730F410E004C061
:1017500011E02C173D07D1F78E89981301C06E8BCD
:1017600069A32C853D8537FD06C024E030E0261BAB
:1017700031093D872C8729E0829FC00111248853BD
:101780009E4F2A853B8528173907B9F47E0182E0F0
:10179000E80EF11CC7010E94C4068E899091EC01ED
:1017A000981710F48093EC0129E0829FC001112466
:1017B000B70188539E4F0E94A40611110E9432085F
:1017C0000F900FBEDF91CF911F91FF90EF90089582
:1017D0000F920FB6F8940F921F9211242F923F92FE
:1017E0004F925F926F927F928F929F92AF92BF9231
:1017F000CF92DF92EF92FF920F931F932F933F931D
:101800004F935F936F937F938F939F93AF93BF9308
:10181000CF93DF93EF93FF93A0915E01B0915F01AF
:101820000DB60D920EB60D9213BE809191018111ED
:10183000F6C0809194019091950101969093950145
:1018400080939401009799F52091990130919A0124
:10185000409197015091980150939A0140939901BA
:101860003093980120939701209196012F5F209348
:101870009601E0919901F0919A012081211107C010
:101880002FEF3FEF309381012093800110C0E09152
:101890009901F0919A010580F681E02D0680F7818B
:1018A000E02D2281338130938101209380012091AA
:1018B0008001309181018217930710F420E09BC0D2
:1018C00020E019E0E0919901F0919A013081311105
:1018D00007C08FEF9FEF90938101809380018BC0B1
:1018E000E0919901F0919A010580F681E02D068042
:1018F000F781E02D428153818417950728F4509396
:1019000081014093800177C0AF014E5F5F4FA28598
:10191000B38564817581E680F780EB01FD82EC82FE
:10192000C681D7817B836A8311966D917C911297D2
:101930004617570721F41296DC93CE93119713861E
:1019400012863C9131503C933C91A489B589109703
:10195000F9F066857785E088F188EB01FD82EC82FD
:10196000C089D1897B836A831196ED90FC90129790
:10197000BF01645F7F4FE616F70621F41296DC93F1
:10198000CE931197158A148A3C9131503C933C9127
:10199000A6893091EC013A1710F4A093EC011A9F3C
:1019A000D0011124BD0168537E4F7B01DB011196EC
:1019B000CD91DC91D583C4836C817D8177836683EF
:1019C0006C817D81DB0113965C934E9312975D834E
:1019D0004C83F386E286E70138813F5F3883A0912C
:1019E0005E01B0915F01468956963C91431708F419
:1019F00069CF21E067CFE0915E01F0915F01E68958
:101A0000D9E0ED9FF0011124E853FE4F8081823030
:101A100008F021E080917E0181110EC00AC0809102
:101A20007C0190917D01019690937D0180937C01D2
:101A30006AC0222309F467C080919101882321F0B4
:101A400081E080937E015FC010927E01A0915E01D3
:101A5000B0915F01E0915E01F0915F012D913C91A9
:101A60008789908D82179307A8F080915E019091ED
:101A70005F0180915E0190915F01259A2D9A2FEF71
:101A800067EA71E6215060407040E1F700C0000055
:101A90001D9AF5CF2091EC0189E001C02150422F21
:101AA00050E0849FF001859FF00D1124E853FE4F14
:101AB0009081992399F3A181B28112960D90BC91E6
:101AC000A02DB283A183289FC001112485539E4F6E
:101AD000A817B90729F412968D919C91928381835E
:101AE00089E0849FF001859FF00D1124E853FE4F9B
:101AF0000180F281E02D8681978190935F01809330
:101B00005E012093EC01A0915E01B0915F01CD9147
:101B1000CDBFDD91DEBFFF91EF91DF91CF91BF91FE
:101B2000AF919F918F917F916F915F914F913F9175
:101B30002F911F910F91FF90EF90DF90CF90BF906A
:101B4000AF909F908F907F906F905F904F903F905D
:101B50002F901F900F900FBE0F900895CF93DF939B
:101B6000009751F0EC010E949306CE010E94D01222
:101B7000DF91CF910C94F008DF91CF910895CF932E
:101B8000DF93CDB7DEB72A970FB6F894DEBF0FBE4E
:101B9000CDBFE0918601F0918701F08010E000E078
:101BA000FF2029F00580F681E02D008111810E943F
:101BB00093060E9489066C018091820190918301B5
:101BC000C816D90608F07CC00E94350BD09283015C
:101BD000C09282010E94F00800919201109193013D
:101BE0001A86198680E06801B1E1CB0ED11C0FB6D0
:101BF000F8940F92F801F28CFF2009F418C1448D7B
:101C00004423C1F050E086819781840F951F97830C
:101C10008683248135818217930720F0808191810A
:101C200097838683D80116966D917C91CE0101969B
:101C30000E94B214FA94F801F28E8085882339F05C
:101C4000C80108960E94E80681110E9432080F9090
:101C50000FBED980D7FCC0CF0C811D81D8011A9648
:101C60008D919C91892B21F0C80102960E94C40697
:101C70000E9489067C018091820190918301E8167F
:101C8000F90610F40E94350BF0928301E092820174
:101C9000B9E0BD1508F4A0CFED2DDD0CFF0BEA5A1D
:101CA000F14FD80152968C910C94AC14DA0EDA0EE6
:101CB000DA0E120FFD0E0C0FDA0EDA0E120FFD0EF9
:101CC000D0928301C0928201FF2099F1C016D10603
:101CD000C0F10E94F008E0918601F0918701058033
:101CE000F681E02DE680F780C70102960E94C406C7
:101CF000D70152968C91529782FF17C01C966D9116
:101D00007C91600F711F9801A601C7010E949F0777
:101D1000882321F0B801C7010E940E0BD70150960D
:101D2000ED91FC91C701099557CF8E7FF701828B0A
:101D3000F5CFE0918401F09185018081BB24B394BB
:101D40008111B12CE0909201F09093010FB6F894BC
:101D50000F92F701858D8F3F09F4158ED7015E969E
:101D60008C915E978F3F11F45E961C920F900FBE80
:101D7000F701828D811114C060915E0170915F0145
:101D8000645F7F4FC70141960E94A406C8018C1969
:101D90009D09BB2011F08FEF9FEF6B2D0E94C907AB
:101DA000C7010E9427070E94F008811115CF0E94E9
:101DB000320812CF8160F801828BCA80DB80648593
:101DC00075856C0D7D1D9601A701C8010E949F07B6
:101DD000882309F401CFD8015096ED91FC91C801F8
:101DE0000995F801828982FFF7CE648575856C0DAF
:101DF0007D1DC8010E940E0BEFCE8160F801828B21
:101E00006A817B81758764876E0D7F1D9701A701AD
:101E1000C8010E949F07E0CE81FD04C0C8010E9456
:101E2000AE0DDACE8E7FD80152968C93D5CE298511
:101E30003A85232B19F40F900FBEABCE811109C048
:101E4000809196018E83809194019091950198875D
:101E50008F830F900FBE0E9493060FB6F8940F92D7
:101E6000D8015D968C915D978F3F11F45D961C9221
:101E7000F801868D8F3F09F4168E0F900FBEBE01BC
:101E8000675F7F4FCE0106960E945606811125C0DE
:101E9000C8010E9499068823D1F0E984FA846091F0
:101EA0005E0170915F01645F7F4FC6010E94690708
:101EB00061E0C7010E94C907C8010E9427070E946C
:101EC000F008811102C00E94320881E090CEC80162
:101ED0000E9427070E94F008F8CFC8010E94270738
:101EE0000E94F008C8010E949906882371F351CE20
:101EF000CF93DF93EC010E949306CE010E9434122F
:101F0000EC010E94F008209769F4259A2D9A2FEF92
:101F100080E792E0215080409040E1F700C000004F
:101F20001D9AF5CFCE01DF91CF9108957F928F92C8
:101F30009F92AF92BF92CF92DF92EF92FF920F9358
:101F40001F93CF93DF93982EA92E762E872E7A019A
:101F5000B22ECA010E94780F6C01892B09F4CDC002
:101F600088E290E00E94780FEC01892B09F4C2C04E
:101F7000D88ECF8AA70165EA70E0C6010E94BB1423
:101F800021E0E21AF108EF89F88DEE0DFF1D672DB3
:101F9000782DCE0149969B01285F3F4FDB014D9183
:101FA000BD01DC014D93CD01AB0141505109DA0176
:101FB0004C91442319F06217730781F718A2BE8A67
:101FC000B9A21AA21B861A861D8A1C8AD987C887BD
:101FD00084E090E08B1991099D878C87DB8BCA8BFD
:101FE0001BA21CA21DA21EA21FA29082DF0111979C
:101FF000AC9211971C92119780E88C9311971C92C8
:1020000057971C9211971C92B397F983E883F801B4
:10201000D183C0830FB6F8940F928091EF018F5F48
:102020008093EF0180915E0190915F01892B09F00F
:1020300073C0D0935F01C0935E018091EF01813046
:1020400081F588EC91E00E94240881ED91E00E94E6
:1020500024088AED91E00E94240883EE91E00E941A
:1020600024088FEB91E00E94240886EB91E00E9407
:1020700024088DEA91E00E94240884EA91E00E94FD
:1020800024088BE991E00E9424088FEB91E0909363
:102090009A018093990186EB91E090939801809347
:1020A00097018091ED018F5F8093ED018E89909172
:1020B000EC01981710F48093EC01F9E08F9FC001B8
:1020C0001124BE016E5F7F4F88539E4F0E94A4066D
:1020D0000F900FBE8091EE01882351F0E0915E01D8
:1020E000F0915F0196898E89981710F40E9432084A
:1020F00081E004C0C6010E94AE0D8FEFDF91CF9149
:102100001F910F91FF90EF90DF90CF90BF90AF9015
:102110009F908F907F9008958091EE018111C1CFA3
:10212000E0915E01F0915F019E898689981708F41D
:10213000B8CFD0935F01C0935E01B3CF0F931F93CD
:10214000CF93DF930AE711E020E040EC50E069E430
:1021500071E085E395E00E94960F813009F0B3C0ED
:102160000FB6F8940F928091920190919301892B70
:1021700009F04FC08FE691E00E94240886E691E0C6
:102180000E9424088FE691E0909387018093860156
:1021900086E691E0909385018093840181E590E04B
:1021A0000E94780FEC01009781F14F969983888304
:1021B0008AE08B8F85E08C8F0FB6F8940F92888120
:1021C00099812B8D4C8DBC01249F600D711D1124B4
:1021D0007D836C831A8E9B838A832150330B429FAD
:1021E000B001439F700D1124860F971F9F838E832C
:1021F0008FEF8D8F8E8FCE0108960E942408CE011E
:1022000041960E9424080F900FBED0939301C09373
:1022100092010F900FBE8091920190919301892BB2
:1022200009F451C008E711E023E045E550E06EE411
:1022300071E08FEB9DE00E94960F813009F043C062
:10224000F8942FEF3FEF309381012093800180932A
:10225000EE011092950110929401A89588E190ECFE
:102260000FB6F894A895809360000FBE909360001D
:10227000A0915E01B0915F01CD91CDBFDD91DEBF38
:10228000FF91EF91DF91CF91BF91AF919F918F918E
:102290007F916F915F914F913F912F911F910F917E
:1022A000FF90EF90DF90CF90BF90AF909F908F9076
:1022B0007F906F905F904F903F902F901F900F9066
:1022C0000FBE0F900895DF91CF911F910F91089548
:1022D0000E94E80B1895E0EFF1E01382128288EE7D
:1022E00093E0A0E0B0E084839583A683B7838AE07F
:1022F00091E09183808385EC90E09587848784ECDE
:1023000090E09787868780EC90E0918B808B81ECC2
:1023100090E0938B828B82EC90E0958B848B86ECA3
:1023200090E0978B868B118E128E138E148EAEEBEF
:10233000B2E011961C921E9212961C921297E5EA38
:10234000F2E0B183A0831382128215821482168276
:1023500017821086118612861386148615861686B5
:102360001786108A118A138A128A158A148A168A85
:10237000108E178AEDE8F2E0138212828CE191E070
:10238000918380838CE084838FEF85838BE08683C9
:1023900084E0878385E0808786E0818787E0828785
:1023A0001386148615861686178681E00C94A8037A
:1023B000789484B5826084BD84B5816084BD85B520
:1023C000826085BD85B5816085BD80916E0081602C
:1023D00080936E00109281008091810082608093D2
:1023E00081008091810081608093810080918000D4
:1023F0008160809380008091B10084608093B100FF
:102400008091B00081608093B00080917A008460F8
:1024100080937A0080917A00826080937A00809124
:102420007A00816080937A0080917A00806880933E
:102430007A001092C10020910401309105018FEFC4
:1024400098E0821B930B90930101809300010E94FE
:1024500068050E949E100E946805C0E0D0E02097A9
:10246000F1F30E941F01FBCF0F931F93CF93DF93D4
:102470008230910510F482E090E0E091C302F09187
:10248000C40230E020E0B0E0A0E0309799F42115DC
:10249000310509F44AC0281B390B24303105D8F521
:1024A0008A819B816115710589F1FB019383828388
:1024B000FE0111C0408151810281138148175907E3
:1024C000E0F04817590799F4109761F012960C93B1
:1024D000129713961C933296CF01DF91CF911F91E3
:1024E0000F9108950093C3021093C402F4CF2115F5
:1024F000310551F04217530738F0A901DB019A0169
:10250000BD01DF01F801C1CFEF01F9CF9093C40203
:102510008093C302CDCFFE01E20FF31F819391930D
:102520002250310939832883D7CF2091C1023091BD
:10253000C202232B41F42091020130910301309318
:10254000C2022093C10220910001309101012115A6
:10255000310541F42DB73EB740910401509105017A
:10256000241B350BE091C102F091C202E217F30780
:10257000A0F42E1B3F0B2817390778F0AC014E5FF3
:102580005F4F2417350748F04E0F5F1F5093C2026C
:102590004093C102819391939FCFF0E0E0E09CCF04
:1025A000CF93DF930097E9F0FC01329713821282F8
:1025B000A091C302B091C402ED0130E020E0109779
:1025C000A1F420813181820F931F2091C1023091AB
:1025D000C2022817390709F061C0F093C202E093E4
:1025E000C102DF91CF910895EA01CE17DF07E8F528
:1025F0004A815B819E0141155105B1F7E901FB83D9
:10260000EA8349915991C40FD51FEC17FD0761F476
:10261000808191810296840F951FE90199838883B7
:10262000828193819B838A83F0E0E0E012968D9112
:102630009C9113970097B9F52D913C911197CD017D
:102640000296820F931F2091C1023091C202281777
:10265000390739F6309751F51092C4021092C3022F
:10266000B093C202A093C102BCCFD383C283408186
:102670005181840F951FC817D90761F44E5F5F4FD2
:1026800088819981480F591F518340838A819B819A
:10269000938382832115310509F0B0CFF093C402F2
:1026A000E093C3029ECFFD01DC01C0CF13821282F2
:1026B000D7CF0E9460136894B1110C94EF13089562
:1026C0000E94D41388F09F5798F0B92F9927B751DB
:1026D000B0F0E1F0660F771F881F991F1AF0BA95C6
:1026E000C9F714C0B13091F00E94EE13B1E0089523
:1026F0000C94EE13672F782F8827B85F39F0B93F15
:10270000CCF3869577956795B395D9F73EF4909578
:102710008095709561957F4F8F4F9F4F0895E894F6
:1027200009C097FB3EF490958095709561957F4F19
:102730008F4F9F4F9923A9F0F92F96E9BB279395C7
:10274000F695879577956795B795F111F8CFFAF4D7
:10275000BB0F11F460FF1BC06F5F7F4F8F4F9F4F08
:1027600016C0882311F096E911C0772321F09EE866
:10277000872F762F05C0662371F096E8862F70E0CC
:1027800060E02AF09A95660F771F881FDAF7880FA6
:102790009695879597F9089557FD9058440F551FC2
:1027A00059F05F3F71F04795880F97FB991F61F0D3
:1027B0009F3F79F087950895121613061406551F4A
:1027C000F2CF4695F1DF08C0161617061806991FB6
:1027D000F1CF86957105610508940895E894BB27AB
:1027E00066277727CB0197F908950E9408140C9467
:1027F00079140E946B1438F00E94721420F0952313
:1028000011F00C9462140C94681411240C94EF13BE
:102810000E94CC1370F3959FC1F3950F50E0551FA4
:10282000629FF001729FBB27F00DB11D639FAA2725
:10283000F00DB11DAA1F649F6627B00DA11D661F74
:10284000829F2227B00DA11D621F739FB00DA11D95
:10285000621F839FA00D611D221F749F3327A00D4F
:10286000611D231F849F600D211D822F762F6A2FEB
:1028700011249F5750409AF0F1F088234AF0EE0F50
:10288000FF1FBB1F661F771F881F91505040A9F77D
:102890009E3F510580F00C9462140C94EF135F3F3F
:1028A000E4F3983ED4F3869577956795B795F795B9
:1028B000E7959F5FC1F7FE2B880F911D9695879531
:1028C00097F9089597F99F6780E870E060E00895B0
:1028D0009FEF80EC089500240A9416161706180638
:1028E0000906089500240A94121613061406050614
:1028F0000895092E0394000C11F4882352F0BB0FA5
:1029000040F4BF2B11F460FF04C06F5F7F4F8F4F07
:102910009F4F0895A1E21A2EAA1BBB1BFD010DC0FB
:10292000AA1FBB1FEE1FFF1FA217B307E407F5077F
:1029300020F0A21BB30BE40BF50B661F771F881F5B
:10294000991F1A9469F760957095809590959B01F1
:10295000AC01BD01CF010895EE0FFF1F0590F4916A
:10296000E02D0994FB01DC0102C001900D92415061
:102970005040D8F70895DC0101C06D93415050409C
:08298000E0F70895F894FFCF81
:102988000000C5028000000000004E01AB00D80026
:102998009B010901E700FB00000000004A04AB00AE
:1029A800AE02AD024F46464C494E45004D6F697325
:1029B80074004E6F726D616C0048656174005375E8
:1029C80068753A20002043200049444C4500546D66
:0E29D8007220537663004F6E650054776F00D7
:107E0000112484B714BE81FFF0D085E080938100F7
:107E100082E08093C00088E18093C10086E0809377
:107E2000C20080E18093C4008EE0C9D0259A86E02C
:107E300020E33CEF91E0309385002093840096BBD3
:107E4000B09BFECF1D9AA8958150A9F7CC24DD24C4
:107E500088248394B5E0AB2EA1E19A2EF3E0BF2EE7
:107E6000A2D0813461F49FD0082FAFD0023811F036
:107E7000013811F484E001C083E08DD089C08234E0
:107E800011F484E103C0853419F485E0A6D080C0E4
:107E9000853579F488D0E82EFF2485D0082F10E0AE
:107EA000102F00270E291F29000F111F8ED06801E7
:107EB0006FC0863521F484E090D080E0DECF843638
:107EC00009F040C070D06FD0082F6DD080E0C81688
:107ED00080E7D80618F4F601B7BEE895C0E0D1E017
:107EE00062D089930C17E1F7F0E0CF16F0E7DF06D8
:107EF00018F0F601B7BEE89568D007B600FCFDCFD4
:107F0000A601A0E0B1E02C9130E011968C91119780
:107F100090E0982F8827822B932B1296FA010C0160
:107F200087BEE89511244E5F5F4FF1E0A038BF0790
:107F300051F7F601A7BEE89507B600FCFDCF97BE46
:107F4000E89526C08437B1F42ED02DD0F82E2BD052
:107F50003CD0F601EF2C8F010F5F1F4F84911BD097
:107F6000EA94F801C1F70894C11CD11CFA94CF0C13
:107F7000D11C0EC0853739F428D08EE10CD085E9AC
:107F80000AD08FE07ACF813511F488E018D01DD067
:107F900080E101D065CF982F8091C00085FFFCCF94
:107FA0009093C60008958091C00087FFFCCF809118
:107FB000C00084FD01C0A8958091C6000895E0E648
:107FC000F0E098E1908380830895EDDF803219F02E
:107FD00088E0F5DFFFCF84E1DECF1F93182FE3DFCA
:107FE0001150E9F7F2DF1F91089580E0E8DFEE27F6
:047FF000FF270994CA
:027FFE00040479
:0400000300007E007B
:00000001FF
